:100000000C942A000C9447000C9447000C94470071
:100010000C9447000C9447000C9447000C94470044
:100020000C9447000C9447000C9447000C94490032
:100030000C9472000C9447000C9447000C944700F9
:100040000C9447000C9447000C9447000C94470014
:100050000C94470011241FBECFE5D4E0DEBFCDBF16
:1000600010E0A0E6B0E0EEEEF6E002C005900D92E2
:10007000A438B107D9F711E0A4E8B0E001C01D929F
:10008000A93AB107E1F70E94F7010C9475030C94AB
:1000900000001F920F920FB60F9211242F938F938F
:1000A0009F93EF93FF939BB12CB1E091A601EF5F7B
:1000B0008091A701E81711F482E008C0892F8871A8
:1000C000E093A601F0E0EC55FF4F20838093A80158
:1000D000FF91EF919F918F912F910F900FBE0F90F5
:1000E0001F9018951F920F920FB60F9211248F93A5
:1000F0009F93EF93FF939091A4018091A50198178E
:1001000061F0E091A501EF5FEF71E093A501F0E0F0
:10011000EC57FF4F80818CB901C05598FF91EF914A
:100120009F918F910F900FBE0F901F901895109276
:10013000A6011092A70108959C011092A4011092AB
:10014000A5011092A6011092A70197FF03C082E0BB
:100150008BB93F7730BD29B988E98AB986E880BD77
:1001600008959091A6018091A701981719F420E0B5
:1001700031E011C0E091A701EF5FE093A701F0E04B
:10018000EC55FF4F30812091A801922F80E0AC0107
:10019000430F511D9A01C90108955D9BFECF8CB993
:1001A00008955D9BFECF8CB90895FC0104C05D9B52
:1001B000FECF31968CB980818823C9F7089503C09A
:1001C0005D9BFECF2CB9FC01019624912223C1F73F
:1001D0000895662311F0C09A01C0C098C198BB9AD7
:1001E000BC9ABD9ABE9AC698C598C498C39887FD14
:1001F000C69A86FDC59A85FDC49A84FDC39AC29AA3
:1002000000C0C298C698C598C498C39883FDC69A82
:1002100082FDC59A81FDC49A80FDC39AC29A00C02E
:10022000C298C39AC49AC59AC69A0895882311F0B1
:10023000C09A01C0C098C19ABB98BC98BD98BE989E
:10024000C29A00C0B39B02C080E101C080E0B499B3
:100250008062B5998064B6998068C29800C0C29ADD
:1002600000C0B3998160B4998260B5998460B699F1
:100270008860C298089580E00E94160187FDFBCF38
:1002800082E090E00197F1F780E00E941601089566
:100290001F93182F0E943B01812F60E00E94E9000C
:1002A0001F9108951F93182F0E943B01812F61E039
:1002B0000E94E9001F910895662311F4805801C03F
:1002C00080540E94480108950E943B0190E00895E7
:1002D00081E00E944801089582E00E94480108954B
:1002E0001F93182F0E943B011A3049F4803410F0FC
:1002F00080E001C080E480580E94480104C0812F42
:1003000061E00E94E9001F910895CF93DF93EC0113
:1003100002C00E94700189918823D9F7DF91CF91A3
:100320000895CF93DF93EC0102C00E947001FE019B
:10033000219684918823C9F7DF91CF9108951F9367
:10034000182FB89AB99ABA9ABB9ABC9ABD9ABE9A13
:1003500080E89EE30197F1F7C49AC39AC29A00C05D
:10036000C29880E893E10197F1F7C29A00C0C29861
:1003700080E490E0FC013197F1F7C29A00C0C29886
:10038000FC013197F1F7C398C29A00C0C298019757
:10039000F1F788E20E94480188E00E9448010E942B
:1003A000680186E00E944801812F0E9448011F9148
:1003B0000895E199FECF9FBB8EBBE09A8DB308955F
:1003C000E199FECF9FBB8EBB6DBBE29AE19A089587
:1003D000A498A598A698A798A09AA19AA29AA39A39
:1003E000AC9AAD9AAE9AAF9AD898D89A08954F928F
:1003F0005F926F927F928F929F92AF92BF92CF92B5
:10040000DF92EF92FF920F931F93DF93CF93CDB7BD
:10041000DEB7A8970FB6F894DEBF0FBECDBF8AE057
:10042000FE013196DF01982F1D929A95E9F7FE01A2
:100430003B96DF01982F1D929A95E9F7FE0175967C
:10044000DF01982F1D929A95E9F7FE017F96DF0153
:100450001D928A95E9F78FE590E00E949C007894C0
:100460000E94E801E199FECF82E090E09FBB8EBB45
:10047000E09AEDB2E199FECF83E090E09FBB8EBBA6
:10048000E09AFDB2E199FECF84E090E09FBB8EBB85
:10049000E09A0DB3E199FECF85E090E09FBB8EBB63
:1004A000E09A1DB380E690E00E94D5008CE690E0D3
:1004B0000E94D50030E7C32E31E0D32E2E010894E0
:1004C000411C511C2BE0622E712C6C0E7D1E95E19F
:1004D000892E912C8C0E9D1E8FE1A82EB12CAC0E76
:1004E000BD1E9C9927C0E394A89A8FE690E00E94D5
:1004F000D50082E090E06E2D0E94E00188EB9BE049
:10050000F6013197F1F70197D9F7E199FECF82E033
:1005100090E09FBB8EBBE09A8DB390E0B2014AE0C1
:1005200050E00E943003C2010E94D5008CE690E0AA
:100530000E94D5009D9927C0F394A99A84E790E082
:100540000E94D50083E090E06F2D0E94E00188EBCF
:100550009BE0F6013197F1F70197D9F7E199FECFCA
:1005600083E090E09FBB8EBBE09A8DB390E0B30137
:100570004AE050E00E943003C3010E94D5008CE69F
:1005800090E00E94D5009E9927C00F5FAA9A89E744
:1005900090E00E94D50084E090E0602F0E94E0018E
:1005A00088EB9BE0F6013197F1F70197D9F7E199D4
:1005B000FECF84E090E09FBB8EBBE09A8DB390E0CD
:1005C000B4014AE050E00E943003C4010E94D5000B
:1005D0008CE690E00E94D5009F9927C01F5FAB9AE0
:1005E0008EE790E00E94D50085E090E0612F0E94A8
:1005F000E00188EB9BE0F6013197F1F70197D9F71D
:10060000E199FECF85E090E09FBB8EBBE09A8DB371
:1006100090E0B5014AE050E00E943003C5010E941D
:10062000D5008CE690E00E94D500C8995ACF82E0B0
:1006300090E060E00E94E00183E090E060E00E94D2
:10064000E00184E090E060E00E94E00185E090E05D
:1006500060E00E94E00110E000E0FF24EE2441CFC2
:10066000FB019F01E8944230C4F04532B4F44A30B3
:1006700029F497FB1EF4909581959F4F642F77275F
:100680000E946103805D8A330CF0895D8193CB0108
:100690000097A1F716F45DE251931082C9010C9402
:1006A0005103DC01FC01672F71917723E1F7329749
:1006B00004C07C916D9370836291AE17BF07C8F33D
:1006C0000895AA1BBB1B51E107C0AA1FBB1FA61799
:1006D000B70710F0A61BB70B881F991F5A95A9F7EB
:0E06E00080959095BC01CD010895F894FFCF50
:1006EE0045564D204D414348494E45000A0D0042A6
:1006FE004A503D004253503D004141503D00434F52
:04070E004E473D0015
:00000001FF
